{
  "_format": "hh-sol-artifact-1",
  "contractName": "SupplyChain",
  "sourceName": "contracts/SupplyChain.sol",
  "abi": [
    {
      "inputs": [],
      "stateMutability": "nonpayable",
      "type": "constructor"
    },
    {
      "inputs": [],
      "name": "AccessControlBadConfirmation",
      "type": "error"
    },
    {
      "inputs": [
        {
          "internalType": "address",
          "name": "account",
          "type": "address"
        },
        {
          "internalType": "bytes32",
          "name": "neededRole",
          "type": "bytes32"
        }
      ],
      "name": "AccessControlUnauthorizedAccount",
      "type": "error"
    },
    {
      "anonymous": false,
      "inputs": [
        {
          "indexed": true,
          "internalType": "uint256",
          "name": "productId",
          "type": "uint256"
        },
        {
          "indexed": false,
          "internalType": "address",
          "name": "oldOwner",
          "type": "address"
        },
        {
          "indexed": false,
          "internalType": "address",
          "name": "newOwner",
          "type": "address"
        }
      ],
      "name": "OwnershipTransferred",
      "type": "event"
    },
    {
      "anonymous": false,
      "inputs": [
        {
          "indexed": true,
          "internalType": "uint256",
          "name": "productId",
          "type": "uint256"
        },
        {
          "indexed": true,
          "internalType": "address",
          "name": "manufacturer",
          "type": "address"
        },
        {
          "indexed": false,
          "internalType": "string",
          "name": "metadataCID",
          "type": "string"
        }
      ],
      "name": "ProductCreated",
      "type": "event"
    },
    {
      "anonymous": false,
      "inputs": [
        {
          "indexed": true,
          "internalType": "bytes32",
          "name": "role",
          "type": "bytes32"
        },
        {
          "indexed": true,
          "internalType": "bytes32",
          "name": "previousAdminRole",
          "type": "bytes32"
        },
        {
          "indexed": true,
          "internalType": "bytes32",
          "name": "newAdminRole",
          "type": "bytes32"
        }
      ],
      "name": "RoleAdminChanged",
      "type": "event"
    },
    {
      "anonymous": false,
      "inputs": [
        {
          "indexed": true,
          "internalType": "bytes32",
          "name": "role",
          "type": "bytes32"
        },
        {
          "indexed": true,
          "internalType": "address",
          "name": "account",
          "type": "address"
        },
        {
          "indexed": true,
          "internalType": "address",
          "name": "sender",
          "type": "address"
        }
      ],
      "name": "RoleGranted",
      "type": "event"
    },
    {
      "anonymous": false,
      "inputs": [
        {
          "indexed": true,
          "internalType": "bytes32",
          "name": "role",
          "type": "bytes32"
        },
        {
          "indexed": true,
          "internalType": "address",
          "name": "account",
          "type": "address"
        },
        {
          "indexed": true,
          "internalType": "address",
          "name": "sender",
          "type": "address"
        }
      ],
      "name": "RoleRevoked",
      "type": "event"
    },
    {
      "anonymous": false,
      "inputs": [
        {
          "indexed": true,
          "internalType": "uint256",
          "name": "productId",
          "type": "uint256"
        },
        {
          "indexed": false,
          "internalType": "enum SupplyChain.Status",
          "name": "status",
          "type": "uint8"
        },
        {
          "indexed": false,
          "internalType": "string",
          "name": "location",
          "type": "string"
        },
        {
          "indexed": false,
          "internalType": "address",
          "name": "updatedBy",
          "type": "address"
        }
      ],
      "name": "StatusUpdated",
      "type": "event"
    },
    {
      "inputs": [],
      "name": "DEFAULT_ADMIN_ROLE",
      "outputs": [
        {
          "internalType": "bytes32",
          "name": "",
          "type": "bytes32"
        }
      ],
      "stateMutability": "view",
      "type": "function"
    },
    {
      "inputs": [],
      "name": "DISTRIBUTOR_ROLE",
      "outputs": [
        {
          "internalType": "bytes32",
          "name": "",
          "type": "bytes32"
        }
      ],
      "stateMutability": "view",
      "type": "function"
    },
    {
      "inputs": [],
      "name": "MANUFACTURER_ROLE",
      "outputs": [
        {
          "internalType": "bytes32",
          "name": "",
          "type": "bytes32"
        }
      ],
      "stateMutability": "view",
      "type": "function"
    },
    {
      "inputs": [],
      "name": "RETAILER_ROLE",
      "outputs": [
        {
          "internalType": "bytes32",
          "name": "",
          "type": "bytes32"
        }
      ],
      "stateMutability": "view",
      "type": "function"
    },
    {
      "inputs": [
        {
          "internalType": "string",
          "name": "metadataCID",
          "type": "string"
        }
      ],
      "name": "createProduct",
      "outputs": [
        {
          "internalType": "uint256",
          "name": "",
          "type": "uint256"
        }
      ],
      "stateMutability": "nonpayable",
      "type": "function"
    },
    {
      "inputs": [
        {
          "internalType": "uint256",
          "name": "productId",
          "type": "uint256"
        }
      ],
      "name": "getHistory",
      "outputs": [
        {
          "components": [
            {
              "internalType": "enum SupplyChain.Status",
              "name": "newStatus",
              "type": "uint8"
            },
            {
              "internalType": "address",
              "name": "updatedBy",
              "type": "address"
            },
            {
              "internalType": "string",
              "name": "location",
              "type": "string"
            },
            {
              "internalType": "uint256",
              "name": "timestamp",
              "type": "uint256"
            }
          ],
          "internalType": "struct SupplyChain.StatusUpdate[]",
          "name": "",
          "type": "tuple[]"
        }
      ],
      "stateMutability": "view",
      "type": "function"
    },
    {
      "inputs": [
        {
          "internalType": "bytes32",
          "name": "role",
          "type": "bytes32"
        }
      ],
      "name": "getRoleAdmin",
      "outputs": [
        {
          "internalType": "bytes32",
          "name": "",
          "type": "bytes32"
        }
      ],
      "stateMutability": "view",
      "type": "function"
    },
    {
      "inputs": [
        {
          "internalType": "bytes32",
          "name": "role",
          "type": "bytes32"
        },
        {
          "internalType": "address",
          "name": "account",
          "type": "address"
        }
      ],
      "name": "grantRole",
      "outputs": [],
      "stateMutability": "nonpayable",
      "type": "function"
    },
    {
      "inputs": [
        {
          "internalType": "bytes32",
          "name": "role",
          "type": "bytes32"
        },
        {
          "internalType": "address",
          "name": "account",
          "type": "address"
        }
      ],
      "name": "hasRole",
      "outputs": [
        {
          "internalType": "bool",
          "name": "",
          "type": "bool"
        }
      ],
      "stateMutability": "view",
      "type": "function"
    },
    {
      "inputs": [
        {
          "internalType": "uint256",
          "name": "",
          "type": "uint256"
        },
        {
          "internalType": "uint256",
          "name": "",
          "type": "uint256"
        }
      ],
      "name": "history",
      "outputs": [
        {
          "internalType": "enum SupplyChain.Status",
          "name": "newStatus",
          "type": "uint8"
        },
        {
          "internalType": "address",
          "name": "updatedBy",
          "type": "address"
        },
        {
          "internalType": "string",
          "name": "location",
          "type": "string"
        },
        {
          "internalType": "uint256",
          "name": "timestamp",
          "type": "uint256"
        }
      ],
      "stateMutability": "view",
      "type": "function"
    },
    {
      "inputs": [
        {
          "internalType": "uint256",
          "name": "",
          "type": "uint256"
        }
      ],
      "name": "products",
      "outputs": [
        {
          "internalType": "uint256",
          "name": "productId",
          "type": "uint256"
        },
        {
          "internalType": "string",
          "name": "metadataCID",
          "type": "string"
        },
        {
          "internalType": "address",
          "name": "manufacturer",
          "type": "address"
        },
        {
          "internalType": "enum SupplyChain.Status",
          "name": "status",
          "type": "uint8"
        },
        {
          "internalType": "uint256",
          "name": "createdAt",
          "type": "uint256"
        },
        {
          "internalType": "address",
          "name": "currentOwner",
          "type": "address"
        }
      ],
      "stateMutability": "view",
      "type": "function"
    },
    {
      "inputs": [
        {
          "internalType": "bytes32",
          "name": "role",
          "type": "bytes32"
        },
        {
          "internalType": "address",
          "name": "callerConfirmation",
          "type": "address"
        }
      ],
      "name": "renounceRole",
      "outputs": [],
      "stateMutability": "nonpayable",
      "type": "function"
    },
    {
      "inputs": [
        {
          "internalType": "bytes32",
          "name": "role",
          "type": "bytes32"
        },
        {
          "internalType": "address",
          "name": "account",
          "type": "address"
        }
      ],
      "name": "revokeRole",
      "outputs": [],
      "stateMutability": "nonpayable",
      "type": "function"
    },
    {
      "inputs": [
        {
          "internalType": "bytes4",
          "name": "interfaceId",
          "type": "bytes4"
        }
      ],
      "name": "supportsInterface",
      "outputs": [
        {
          "internalType": "bool",
          "name": "",
          "type": "bool"
        }
      ],
      "stateMutability": "view",
      "type": "function"
    },
    {
      "inputs": [
        {
          "internalType": "uint256",
          "name": "productId",
          "type": "uint256"
        },
        {
          "internalType": "address",
          "name": "newOwner",
          "type": "address"
        }
      ],
      "name": "transferOwnership",
      "outputs": [],
      "stateMutability": "nonpayable",
      "type": "function"
    },
    {
      "inputs": [
        {
          "internalType": "uint256",
          "name": "productId",
          "type": "uint256"
        },
        {
          "internalType": "enum SupplyChain.Status",
          "name": "status",
          "type": "uint8"
        },
        {
          "internalType": "string",
          "name": "location",
          "type": "string"
        }
      ],
      "name": "updateStatus",
      "outputs": [],
      "stateMutability": "nonpayable",
      "type": "function"
    }
  ],
  "bytecode": "0x608060405260016003553480156200001657600080fd5b506200002c6000801b336200003360201b60201c565b50620001a8565b60006200004783836200013660201b60201c565b6200012b57600160008085815260200190815260200160002060000160008473ffffffffffffffffffffffffffffffffffffffff1673ffffffffffffffffffffffffffffffffffffffff16815260200190815260200160002060006101000a81548160ff021916908315150217905550620000c7620001a060201b60201c565b73ffffffffffffffffffffffffffffffffffffffff168273ffffffffffffffffffffffffffffffffffffffff16847f2f8788117e7eff1d82e926ec794901d17c78024a50270940304540a733656f0d60405160405180910390a46001905062000130565b600090505b92915050565b600080600084815260200190815260200160002060000160008373ffffffffffffffffffffffffffffffffffffffff1673ffffffffffffffffffffffffffffffffffffffff16815260200190815260200160002060009054906101000a900460ff16905092915050565b600033905090565b61236e80620001b86000396000f3fe608060405234801561001057600080fd5b50600436106101005760003560e01c8063781f0b7211610097578063a217fddf11610066578063a217fddf146102d9578063c8691b2a146102f7578063d547741f14610327578063f0bd87cc1461034357610100565b8063781f0b721461023a5780637acc0b201461025657806391d148541461028b578063965288b0146102bb57610100565b806329507f73116100d357806329507f73146101b35780632f2ff15d146101cf57806336568abe146101eb57806371d9e19e1461020757610100565b806301ffc9a71461010557806302ec06be146101355780632115e7bf14610165578063248a9ca314610183575b600080fd5b61011f600480360381019061011a9190611493565b610361565b60405161012c91906114db565b60405180910390f35b61014f600480360381019061014a919061155b565b6103db565b60405161015c91906115c1565b60405180910390f35b61016d610784565b60405161017a91906115f5565b60405180910390f35b61019d6004803603810190610198919061163c565b6107a8565b6040516101aa91906115f5565b60405180910390f35b6101cd60048036038101906101c891906116f3565b6107c7565b005b6101e960048036038101906101e49190611733565b6109a9565b005b61020560048036038101906102009190611733565b6109cb565b005b610221600480360381019061021c9190611773565b610a46565b60405161023194939291906118c9565b60405180910390f35b610254600480360381019061024f9190611a6a565b610b48565b005b610270600480360381019061026b9190611ad9565b610de2565b60405161028296959493929190611b06565b60405180910390f35b6102a560048036038101906102a09190611733565b610ef3565b6040516102b291906114db565b60405180910390f35b6102c3610f5d565b6040516102d091906115f5565b60405180910390f35b6102e1610f81565b6040516102ee91906115f5565b60405180910390f35b610311600480360381019061030c9190611ad9565b610f88565b60405161031e9190611d0a565b60405180910390f35b610341600480360381019061033c9190611733565b611127565b005b61034b611149565b60405161035891906115f5565b60405180910390f35b60007f7965db0b000000000000000000000000000000000000000000000000000000007bffffffffffffffffffffffffffffffffffffffffffffffffffffffff1916827bffffffffffffffffffffffffffffffffffffffffffffffffffffffff191614806103d457506103d38261116d565b5b9050919050565b60007feefb95e842a3287179d933b4460be539a1d5af11aa8b325bb45c5c8dc92de4ed610407816111d7565b600060035490506003600081548092919061042190611d5b565b91905055506040518060c0016040528082815260200186868080601f016020809104026020016040519081016040528093929190818152602001838380828437600081840152601f19601f8201169050808301925050505050505081526020013373ffffffffffffffffffffffffffffffffffffffff168152602001600060048111156104b1576104b06117b3565b5b81526020014281526020013373ffffffffffffffffffffffffffffffffffffffff16815250600160008381526020019081526020016000206000820151816000015560208201518160010190816105089190611faf565b5060408201518160020160006101000a81548173ffffffffffffffffffffffffffffffffffffffff021916908373ffffffffffffffffffffffffffffffffffffffff16021790555060608201518160020160146101000a81548160ff0219169083600481111561057b5761057a6117b3565b5b02179055506080820151816003015560a08201518160040160006101000a81548173ffffffffffffffffffffffffffffffffffffffff021916908373ffffffffffffffffffffffffffffffffffffffff16021790555090505060026000828152602001908152602001600020604051806080016040528060006004811115610606576106056117b3565b5b81526020013373ffffffffffffffffffffffffffffffffffffffff1681526020016040518060400160405280600681526020017f4f726967696e0000000000000000000000000000000000000000000000000000815250815260200142815250908060018154018082558091505060019003906000526020600020906003020160009091909190915060008201518160000160006101000a81548160ff021916908360048111156106ba576106b96117b3565b5b021790555060208201518160000160016101000a81548173ffffffffffffffffffffffffffffffffffffffff021916908373ffffffffffffffffffffffffffffffffffffffff160217905550604082015181600101908161071b9190611faf565b506060820151816002015550503373ffffffffffffffffffffffffffffffffffffffff16817f91bfc064380de20e1c90ea2ed78d0358b4ab45d446c0b93b0b07bc86f95897da87876040516107719291906120ae565b60405180910390a3809250505092915050565b7f2a5f906c256a5d799494fcd066e1f6c077689de1cdb65052a1624de4bace99bf81565b6000806000838152602001908152602001600020600101549050919050565b3373ffffffffffffffffffffffffffffffffffffffff166001600084815260200190815260200160002060040160009054906101000a900473ffffffffffffffffffffffffffffffffffffffff1673ffffffffffffffffffffffffffffffffffffffff161461086b576040517f08c379a000000000000000000000000000000000000000000000000000000000815260040161086290612144565b60405180910390fd5b600073ffffffffffffffffffffffffffffffffffffffff168173ffffffffffffffffffffffffffffffffffffffff16036108da576040517f08c379a00000000000000000000000000000000000000000000000000000000081526004016108d1906121b0565b60405180910390fd5b60006001600084815260200190815260200160002060040160009054906101000a900473ffffffffffffffffffffffffffffffffffffffff169050816001600085815260200190815260200160002060040160006101000a81548173ffffffffffffffffffffffffffffffffffffffff021916908373ffffffffffffffffffffffffffffffffffffffff160217905550827f16b85f49bf01212961345d3016c9a531894accf62eb7680f2045d79185cc0ec0828460405161099c9291906121d0565b60405180910390a2505050565b6109b2826107a8565b6109bb816111d7565b6109c583836111eb565b50505050565b6109d36112dc565b73ffffffffffffffffffffffffffffffffffffffff168173ffffffffffffffffffffffffffffffffffffffff1614610a37576040517f6697b23200000000000000000000000000000000000000000000000000000000815260040160405180910390fd5b610a4182826112e4565b505050565b60026020528160005260406000208181548110610a6257600080fd5b9060005260206000209060030201600091509150508060000160009054906101000a900460ff16908060000160019054906101000a900473ffffffffffffffffffffffffffffffffffffffff1690806001018054610abf90611dd2565b80601f0160208091040260200160405190810160405280929190818152602001828054610aeb90611dd2565b8015610b385780601f10610b0d57610100808354040283529160200191610b38565b820191906000526020600020905b815481529060010190602001808311610b1b57829003601f168201915b5050505050908060020154905084565b6000600160008581526020019081526020016000206000015403610ba1576040517f08c379a0000000000000000000000000000000000000000000000000000000008152600401610b9890612245565b60405180910390fd5b3373ffffffffffffffffffffffffffffffffffffffff166001600085815260200190815260200160002060040160009054906101000a900473ffffffffffffffffffffffffffffffffffffffff1673ffffffffffffffffffffffffffffffffffffffff1614610c45576040517f08c379a0000000000000000000000000000000000000000000000000000000008152600401610c3c906122b1565b60405180910390fd5b816001600085815260200190815260200160002060020160146101000a81548160ff02191690836004811115610c7e57610c7d6117b3565b5b0217905550600260008481526020019081526020016000206040518060800160405280846004811115610cb457610cb36117b3565b5b81526020013373ffffffffffffffffffffffffffffffffffffffff16815260200183815260200142815250908060018154018082558091505060019003906000526020600020906003020160009091909190915060008201518160000160006101000a81548160ff02191690836004811115610d3357610d326117b3565b5b021790555060208201518160000160016101000a81548173ffffffffffffffffffffffffffffffffffffffff021916908373ffffffffffffffffffffffffffffffffffffffff1602179055506040820151816001019081610d949190611faf565b50606082015181600201555050827fd35271a8825f8de958bbcf4ee452b8bc87633dadfc705cf61cb73c0153c55097838333604051610dd5939291906122d1565b60405180910390a2505050565b6001602052806000526040600020600091509050806000015490806001018054610e0b90611dd2565b80601f0160208091040260200160405190810160405280929190818152602001828054610e3790611dd2565b8015610e845780601f10610e5957610100808354040283529160200191610e84565b820191906000526020600020905b815481529060010190602001808311610e6757829003601f168201915b5050505050908060020160009054906101000a900473ffffffffffffffffffffffffffffffffffffffff16908060020160149054906101000a900460ff16908060030154908060040160009054906101000a900473ffffffffffffffffffffffffffffffffffffffff16905086565b600080600084815260200190815260200160002060000160008373ffffffffffffffffffffffffffffffffffffffff1673ffffffffffffffffffffffffffffffffffffffff16815260200190815260200160002060009054906101000a900460ff16905092915050565b7feefb95e842a3287179d933b4460be539a1d5af11aa8b325bb45c5c8dc92de4ed81565b6000801b81565b606060026000838152602001908152602001600020805480602002602001604051908101604052809291908181526020016000905b8282101561111c57838290600052602060002090600302016040518060800160405290816000820160009054906101000a900460ff166004811115611005576110046117b3565b5b6004811115611017576110166117b3565b5b81526020016000820160019054906101000a900473ffffffffffffffffffffffffffffffffffffffff1673ffffffffffffffffffffffffffffffffffffffff1673ffffffffffffffffffffffffffffffffffffffff16815260200160018201805461108190611dd2565b80601f01602080910402602001604051908101604052809291908181526020018280546110ad90611dd2565b80156110fa5780601f106110cf576101008083540402835291602001916110fa565b820191906000526020600020905b8154815290600101906020018083116110dd57829003601f168201915b5050505050815260200160028201548152505081526020019060010190610fbd565b505050509050919050565b611130826107a8565b611139816111d7565b61114383836112e4565b50505050565b7ffbd454f36a7e1a388bd6fc3ab10d434aa4578f811acbbcf33afb1c697486313c81565b60007f01ffc9a7000000000000000000000000000000000000000000000000000000007bffffffffffffffffffffffffffffffffffffffffffffffffffffffff1916827bffffffffffffffffffffffffffffffffffffffffffffffffffffffff1916149050919050565b6111e8816111e36112dc565b6113d6565b50565b60006111f78383610ef3565b6112d157600160008085815260200190815260200160002060000160008473ffffffffffffffffffffffffffffffffffffffff1673ffffffffffffffffffffffffffffffffffffffff16815260200190815260200160002060006101000a81548160ff02191690831515021790555061126e6112dc565b73ffffffffffffffffffffffffffffffffffffffff168273ffffffffffffffffffffffffffffffffffffffff16847f2f8788117e7eff1d82e926ec794901d17c78024a50270940304540a733656f0d60405160405180910390a4600190506112d6565b600090505b92915050565b600033905090565b60006112f08383610ef3565b156113cb57600080600085815260200190815260200160002060000160008473ffffffffffffffffffffffffffffffffffffffff1673ffffffffffffffffffffffffffffffffffffffff16815260200190815260200160002060006101000a81548160ff0219169083151502179055506113686112dc565b73ffffffffffffffffffffffffffffffffffffffff168273ffffffffffffffffffffffffffffffffffffffff16847ff6391f5c32d9c69d2a47ea670b442974b53935d1edc7fd64eb21e047a839171b60405160405180910390a4600190506113d0565b600090505b92915050565b6113e08282610ef3565b6114235780826040517fe2517d3f00000000000000000000000000000000000000000000000000000000815260040161141a92919061230f565b60405180910390fd5b5050565b6000604051905090565b600080fd5b600080fd5b60007fffffffff0000000000000000000000000000000000000000000000000000000082169050919050565b6114708161143b565b811461147b57600080fd5b50565b60008135905061148d81611467565b92915050565b6000602082840312156114a9576114a8611431565b5b60006114b78482850161147e565b91505092915050565b60008115159050919050565b6114d5816114c0565b82525050565b60006020820190506114f060008301846114cc565b92915050565b600080fd5b600080fd5b600080fd5b60008083601f84011261151b5761151a6114f6565b5b8235905067ffffffffffffffff811115611538576115376114fb565b5b60208301915083600182028301111561155457611553611500565b5b9250929050565b6000806020838503121561157257611571611431565b5b600083013567ffffffffffffffff8111156115905761158f611436565b5b61159c85828601611505565b92509250509250929050565b6000819050919050565b6115bb816115a8565b82525050565b60006020820190506115d660008301846115b2565b92915050565b6000819050919050565b6115ef816115dc565b82525050565b600060208201905061160a60008301846115e6565b92915050565b611619816115dc565b811461162457600080fd5b50565b60008135905061163681611610565b92915050565b60006020828403121561165257611651611431565b5b600061166084828501611627565b91505092915050565b611672816115a8565b811461167d57600080fd5b50565b60008135905061168f81611669565b92915050565b600073ffffffffffffffffffffffffffffffffffffffff82169050919050565b60006116c082611695565b9050919050565b6116d0816116b5565b81146116db57600080fd5b50565b6000813590506116ed816116c7565b92915050565b6000806040838503121561170a57611709611431565b5b600061171885828601611680565b9250506020611729858286016116de565b9150509250929050565b6000806040838503121561174a57611749611431565b5b600061175885828601611627565b9250506020611769858286016116de565b9150509250929050565b6000806040838503121561178a57611789611431565b5b600061179885828601611680565b92505060206117a985828601611680565b9150509250929050565b7f4e487b7100000000000000000000000000000000000000000000000000000000600052602160045260246000fd5b600581106117f3576117f26117b3565b5b50565b6000819050611804826117e2565b919050565b6000611814826117f6565b9050919050565b61182481611809565b82525050565b611833816116b5565b82525050565b600081519050919050565b600082825260208201905092915050565b60005b83811015611873578082015181840152602081019050611858565b60008484015250505050565b6000601f19601f8301169050919050565b600061189b82611839565b6118a58185611844565b93506118b5818560208601611855565b6118be8161187f565b840191505092915050565b60006080820190506118de600083018761181b565b6118eb602083018661182a565b81810360408301526118fd8185611890565b905061190c60608301846115b2565b95945050505050565b6005811061192257600080fd5b50565b60008135905061193481611915565b92915050565b600080fd5b7f4e487b7100000000000000000000000000000000000000000000000000000000600052604160045260246000fd5b6119778261187f565b810181811067ffffffffffffffff821117156119965761199561193f565b5b80604052505050565b60006119a9611427565b90506119b5828261196e565b919050565b600067ffffffffffffffff8211156119d5576119d461193f565b5b6119de8261187f565b9050602081019050919050565b82818337600083830152505050565b6000611a0d611a08846119ba565b61199f565b905082815260208101848484011115611a2957611a2861193a565b5b611a348482856119eb565b509392505050565b600082601f830112611a5157611a506114f6565b5b8135611a618482602086016119fa565b91505092915050565b600080600060608486031215611a8357611a82611431565b5b6000611a9186828701611680565b9350506020611aa286828701611925565b925050604084013567ffffffffffffffff811115611ac357611ac2611436565b5b611acf86828701611a3c565b9150509250925092565b600060208284031215611aef57611aee611431565b5b6000611afd84828501611680565b91505092915050565b600060c082019050611b1b60008301896115b2565b8181036020830152611b2d8188611890565b9050611b3c604083018761182a565b611b49606083018661181b565b611b5660808301856115b2565b611b6360a083018461182a565b979650505050505050565b600081519050919050565b600082825260208201905092915050565b6000819050602082019050919050565b611ba381611809565b82525050565b611bb2816116b5565b82525050565b600082825260208201905092915050565b6000611bd482611839565b611bde8185611bb8565b9350611bee818560208601611855565b611bf78161187f565b840191505092915050565b611c0b816115a8565b82525050565b6000608083016000830151611c296000860182611b9a565b506020830151611c3c6020860182611ba9565b5060408301518482036040860152611c548282611bc9565b9150506060830151611c696060860182611c02565b508091505092915050565b6000611c808383611c11565b905092915050565b6000602082019050919050565b6000611ca082611b6e565b611caa8185611b79565b935083602082028501611cbc85611b8a565b8060005b85811015611cf85784840389528151611cd98582611c74565b9450611ce483611c88565b925060208a01995050600181019050611cc0565b50829750879550505050505092915050565b60006020820190508181036000830152611d248184611c95565b905092915050565b7f4e487b7100000000000000000000000000000000000000000000000000000000600052601160045260246000fd5b6000611d66826115a8565b91507fffffffffffffffffffffffffffffffffffffffffffffffffffffffffffffffff8203611d9857611d97611d2c565b5b600182019050919050565b7f4e487b7100000000000000000000000000000000000000000000000000000000600052602260045260246000fd5b60006002820490506001821680611dea57607f821691505b602082108103611dfd57611dfc611da3565b5b50919050565b60008190508160005260206000209050919050565b60006020601f8301049050919050565b600082821b905092915050565b600060088302611e657fffffffffffffffffffffffffffffffffffffffffffffffffffffffffffffffff82611e28565b611e6f8683611e28565b95508019841693508086168417925050509392505050565b6000819050919050565b6000611eac611ea7611ea2846115a8565b611e87565b6115a8565b9050919050565b6000819050919050565b611ec683611e91565b611eda611ed282611eb3565b848454611e35565b825550505050565b600090565b611eef611ee2565b611efa818484611ebd565b505050565b5b81811015611f1e57611f13600082611ee7565b600181019050611f00565b5050565b601f821115611f6357611f3481611e03565b611f3d84611e18565b81016020851015611f4c578190505b611f60611f5885611e18565b830182611eff565b50505b505050565b600082821c905092915050565b6000611f8660001984600802611f68565b1980831691505092915050565b6000611f9f8383611f75565b9150826002028217905092915050565b611fb882611839565b67ffffffffffffffff811115611fd157611fd061193f565b5b611fdb8254611dd2565b611fe6828285611f22565b600060209050601f8311600181146120195760008415612007578287015190505b6120118582611f93565b865550612079565b601f19841661202786611e03565b60005b8281101561204f5784890151825560018201915060208501945060208101905061202a565b8683101561206c5784890151612068601f891682611f75565b8355505b6001600288020188555050505b505050505050565b600061208d8385611844565b935061209a8385846119eb565b6120a38361187f565b840190509392505050565b600060208201905081810360008301526120c9818486612081565b90509392505050565b7f4f6e6c79207468652063757272656e74206f776e65722063616e207472616e7360008201527f6665722074686973206974656d2e000000000000000000000000000000000000602082015250565b600061212e602e83611844565b9150612139826120d2565b604082019050919050565b6000602082019050818103600083015261215d81612121565b9050919050565b7f4e6577206f776e65722063616e6e6f74206265207a65726f2061646472657373600082015250565b600061219a602083611844565b91506121a582612164565b602082019050919050565b600060208201905081810360008301526121c98161218d565b9050919050565b60006040820190506121e5600083018561182a565b6121f2602083018461182a565b9392505050565b7f50726f6475637420646f6573206e6f7420657869737400000000000000000000600082015250565b600061222f601683611844565b915061223a826121f9565b602082019050919050565b6000602082019050818103600083015261225e81612222565b9050919050565b7f596f7520617265206e6f7420746865206f776e65722100000000000000000000600082015250565b600061229b601683611844565b91506122a682612265565b602082019050919050565b600060208201905081810360008301526122ca8161228e565b9050919050565b60006060820190506122e6600083018661181b565b81810360208301526122f88185611890565b9050612307604083018461182a565b949350505050565b6000604082019050612324600083018561182a565b61233160208301846115e6565b939250505056fea2646970667358221220c5f37c0eb7369c1da27b50f601c27176eb8db02b1c27f39faf98ad28dafa194864736f6c63430008140033",
  "linkReferences": {},
  "deployedLinkReferences": {}
}